:020000040800F2
:1000000030520020C1010008512A0008A126000832
:1000100089290008D9080008F153000800000000F1
:10002000000000000000000000000000D3010008F4
:10003000390A000800000000EF020008A13B000898
:10004000DB010008DB010008DB010008DB01000820
:10005000DB010008DB010008DB010008DB01000810
:10006000DB010008DB010008DB010008DB01000800
:10007000DB010008DB010008DB010008DB010008F0
:10008000DB010008DB010008DB010008DB010008E0
:10009000DB010008DB010008DB010008DB010008D0
:1000A000DB010008DB010008DB010008DB010008C0
:1000B000DB010008DB010008DB010008DB010008B0
:1000C000DB010008DB010008DB010008DB010008A0
:1000D000DB010008DB010008DB010008DB01000890
:1000E000DB010008DB010008DB010008DB01000880
:1000F000DB010008DB010008DB010008DB01000870
:10010000DB010008DB010008DB010008DB0100085F
:10011000DB010008DB010008DB010008DB0100084F
:10012000DB010008DB010008DB010008DB0100083F
:10013000DB010008DB010008DB010008DB0100082F
:10014000DB010008DB010008DB010008DB0100081F
:10015000DB010008DB010008DB010008DB0100080F
:10016000DB010008DB010008DB010008DB010008FF
:10017000DB010008DB010008DB01000800000000D3
:10018000DB010008DB010008DB010008DB010008DF
:10019000DB010008DB010008DB010008DB010008CF
:1001A000DB010008DB010008DB010008DFF80CD0F0
:1001B00000F044F80048004729540008305200205D
:1001C0000648804706480047FEE7FEE7FEE7FEE7F1
:1001D000FEE7FEE7FEE7FEE7FEE7FEE73D5000082C
:1001E000AD01000872B6704762B67047EFF3108039
:1001F00072B6704780F31088704730BF704720BFD9
:100200007047B0FA80F0704790FAA0F0B0FA80F032
:10021000704790FAA0F0704740EA01039B0703D0B3
:1002200009E008C9121F08C0042AFAD203E011F835
:10023000013B00F8013B521EF9D27047064C074DB6
:1002400006E0E06840F0010394E8070098471034A6
:10025000AC42F6D3FFF7AEFF3480000854800008AC
:1002600070B58C1810F8015B15F0070301D110F878
:10027000013B2A1106D110F8012B03E010F8016BA5
:1002800001F8016B5B1EF9D12B0705D40023521E28
:100290000DD401F8013BFAE710F8013BCB1A921C90
:1002A00003E013F8015B01F8015B521EF9D5A1428E
:1002B000D8D3002070BD000023484FF0FF0101702B
:1002C000002080F309882148016881F308882048CC
:1002D0004FF08051016062B6FEE71D484FF080513B
:1002E000016070471A484FF080510160704772B644
:1002F000EFF3098050B1A0F1200080E8F00FA0F1E9
:10030000400080EC108B13490968086000B5124862
:1003100080475DF804EB114811490A7802700D48D6
:1003200010490A680260106890EC108B00F14000E0
:1003300090E8F00F00F120002EF0100E80F30988F5
:100340004EF0040E62B6704722ED00E0A8000020D7
:1003500004ED00E04C0100204D390008F6000020BB
:10036000F70000205001002010B5002000F010FA26
:1003700004F06AFF00221146501E01F055FC00F007
:1003800055F94FF05041012000F096F9012000F09E
:10039000D1F9064800F0E2F902F098F904A002F061
:1003A000DDF9BDE8104008A002F09AB9580000201D
:1003B00075434F5320494949204D75746578204550
:1003C00078616D706C65000053544D333234783968
:1003D000492D4556414C20626F6172640000000057
:1003E00010B501F051FB04F0F5FDBDE81040FFF73A
:1003F000BBBF00001CB5044600F008F9034600F03E
:10040000F5F802460020CDE900040648064C0068D5
:1004100000EB800101EBC00104EB8101C96D02F02A
:10042000D7F91CBD54000020183300200A4B30B40B
:100430001B6803EB4304094B03EB84039B68DD88D3
:100440001C689B88DB1DDB08203A13FB02F205FBCE
:10045000024230BC00F0F2BA540000200034002008
:100460002DE9F04715460446002789463A462846B6
:1004700000E0521C10F8011B0029FAD100F0B6F878
:10048000DFF890C0244E012BDCF8001001EB410195
:1004900006EB810189688988B0FBF1F002D0022B5C
:1004A00009D104E0801A484304EB500002E0801AAE
:1004B0004843001B84B2E04600F098F80146D8F8A3
:1004C000000000EB400006EB80008068808807FB9E
:1004D000101189B2814213D3012012E0494620460F
:1004E000FFF7A4FFD8F800007F1C00EB400006EBEC
:1004F0008000BFB280686D1C8088204484B2DBE736
:1005000000202A780AB1012100E000210842E5D14B
:10051000BDE8F087540000200034002010B50A46E2
:10052000034600F055F8C088BDE81040584381B23A
:1005300003230020FFF794BF10B50B46044600F0DC
:1005400055F8074903FB0040096801EB810303EB01
:10055000C101044B03EB8101C96D41F8202010BD9E
:1005600054000020183300202DE9FC419846164B1A
:100570000746164E1868154600EB40000C4656F824
:10058000200000F0F9F800F031F8196800FB047061
:1005900001EB810202EBC101A6F1E80202EB81014D
:1005A000C96D01EB800400F021F8411B1868434637
:1005B00000EB400256F82220CDE900122A462146DF
:1005C00002F006F9BDE8FC81540000200034002050
:1005D00004480549006800EB400001EB800080689A
:1005E00070470000540000200034002005480068D7
:1005F00000EB800101EBC000034901EB8000006EBD
:10060000704700005400002018330020054800689F
:1006100000EB800101EBC000034901EB8000406E5C
:1006200070470000540000201833002070B51F4CA4
:1006300000252E206561C4E906501720206240F293
:10064000F710A06240F24E30606240F20D2020634D
:100650004FF48460E062A4F13000082101604FF49F
:10066000B8710161042181618903416201F03EFB9F
:100670004FF4487020664FF4F070606684F8345090
:1006800084F8355084F836506560A560E560084808
:100690002561206002F07AF9204601F03BFA00F073
:1006A0009DF8044800F05AF8002070BD183300206F
:1006B000006801405800002010B58EB000230A46A3
:1006C00004460093FFF792FFCDE90103FFF79EFF79
:1006D0000992CDE90303FF20CDE905038DF8303001
:1006E0008DF831308DF832304FF4C060079007201C
:1006F0000890FFF77BFF0A90FFF788FF0B902246D8
:1007000069460A4801F0DCF9084904EB4400E83185
:1007100001EB80024FF0FF335360054B93604FF0C5
:100720007F4241F820200EB010BD00001833002099
:100730005800002001490860704700005400002064
:100740000449054A096801EB410102EB8101486057
:100750007047000054000020003400200449054A7E
:10076000096801EB410102EB8101886070470000DC
:1007700054000020003400200349044A096801EBBA
:10078000410142F82100704754000020003400204D
:1007900070B50F49044686B0086840F0080008604C
:1007A0000C4E0D4D694636F8140000900120019062
:1007B00002900220039055F8240001F03FF836F82B
:1007C000141055F82400012201F04AF906B070BD5A
:1007D00030380240905400082400002070B51A48B8
:1007E00018490423016000F13401022207248B60C0
:1007F000C1E90024C1E903424A618A6101264660D9
:1008000010218660C0E90331402141614FF4C0717D
:100810000024C0E90614910201624900C0E90914EC
:1008200004F048FB08490848343101F083FE074DC5
:1008300008B12E7000E02C7040F2695000F008F80A
:10084000287870BD400100A06834002070000020AE
:100850002DE9F8431F4C0026012708250096C4E91E
:100860000075C4E9027681464FF6FF78214642467C
:10087000A1F1500001F08EFE012000F0D3FF022014
:10088000E66084E8A10021464246A1F1500001F053
:1008900081FE0320C4E90005C4E902562146424610
:1008A000A1F1500001F076FE4FF40C700090C4E905
:1008B00002700421C4E9001521464246A1F150000E
:1008C00001F068FE4946A4F15000BDE8F84301F08C
:1008D00050BE0000B8340020FEE70000034909695B
:1008E000884201D9401A7047002070478C000020D0
:1008F00010B5FFF77BFC04494C69FFF77BFC2046F1
:10090000BDE81040FFF7EABF8C00002010B5FFF7EC
:10091000EFFF0446FFF76AFC034A00215161FFF72D
:1009200069FC204610BD00008C00002010B5FFF7C8
:100930005DFC04498C69FFF75DFC2046BDE8104072
:10094000FFF7CCBF8C00002010B5064C2088401C5F
:100950002080608810B900F01FF8A0606088401CFB
:10096000608010BD8C00002010B50A4C6088401ECD
:100970000004000C60800CD100F00EF8E060A1686B
:10098000401A6169814200D26061A169814200D24E
:10099000A06110BD8C00002000207047F0B5059CC0
:1009A00044EA034403685C640368DA634268B2F5AE
:1009B000403F07D0C26A0A2A3BD0092A39D00068D2
:1009C000C160F0BD01F47F4201F47F0C866801F044
:1009D0007F4301F47F0701F47F44CDB242EA0C0269
:1009E000BEB1012E16D001F47F02D20CC1F3C401B6
:1009F000022E11D0032E14D01A0F3E0D230B2909FD
:100A00001B0143EA062343EA02320A430068826379
:100A1000F0BD1A432A43F9E7A30A5B0143EAC22265
:100A2000F3E7DB0FE40A640144EA822242EAC332BC
:100A3000EBE700680162F0BD704700002DE9F74F59
:100A4000DFF8A4A00026DAF8000000EB40012748F8
:100A500000EB810080688588C788E81D834620F008
:100A60000700401B00F0FF093AE000BF4FEADB013E
:100A70000298012901FB06000BD002290BD0017856
:100A800042780904807841EA022141EA0008002402
:100A90001FE0007801E0008840BA8046F7E7291B94
:100AA00049440120491E884010EA080FDAF8000086
:100AB00000EB40010D4802D050F8212002E000EB8D
:100AC0008100426800980199204480B2FFF734FD0C
:100AD000641CAC42E3D30198401C80B2761C0190A8
:100AE000BE42C3D3BDE8FE8F540000200034002076
:100AF00030B5D1E901231A43D1E9033423431A4322
:100B00004B690D681A438B691A43D1E90734496A66
:100B1000012D04D01A4322430A43026003E0234319
:100B20000B4303604260002030BD426942EA41014C
:100B3000416100207047F8B514460546D1E900022E
:100B400010438A686FF01F03C96803EB421242EA40
:100B5000412108430090286100F088FF0619A86928
:100B6000800609D5641C05D000F080FFB04201D397
:100B70000320F8BD0120F8BD0020F8BDF0B56FF0EE
:100B80000F05D1E9003405EB04145B1E2E0123434D
:100B90008C682F0306EB04244FEA054C23430D8A8F
:100BA0008E8ACC68097E4FF07F4E07EB05450CEB33
:100BB00006560EEB0161012A08D03A1102EB04320D
:100BC00013432B4333430B43836007E02B430B4317
:100BD0002103A1F580513143C36081600020F0BD45
:100BE00070B500EB011290F838301832012B22D08A
:100BF000012480F83840022380F83930184B05680A
:100C0000D9B1E969167B194013891B0443EA0663CD
:100C100056680E433343EB61036819698D0B116805
:100C2000AD032943C3F8101080F83940002180F843
:100C30003810084670BD022070BD696A167B1940E5
:100C400013891B0443EA066356680E4333436B6201
:100C5000036899698D0B1168AD0329439961E3E736
:100C6000F0FFFC0010B5040003D094F8390010B177
:100C700004E0012010BD204600F01FF8022084F897
:100C800039002168086820F4403260681043086029
:100C90002168486B20F00702A06810434863216870
:100CA000086C820BE0689203104308640020E06344
:100CB000012084F83900002010BD70472DE9F0476D
:100CC000044600680D4600684FF00006C0074FF06C
:100CD00004074FF003082DD000F0C8FE00EB050913
:100CE00024E04168426801F0200102F00102114352
:100CF0000DD0816841F0200181602068816841F059
:100D00000101816084F8397084F8386024E0681C3F
:100D10000CD000F0ABFE484508D304F8386F60688B
:100D200040F02000606084F8018024E02068416881
:100D30008907D6D52068C069800622D500F096FEC6
:100D400000EB050919E04168090708D5816841F001
:100D50000801816084F839700120BDE8F087681CC3
:100D60000BD000F083FE484507D3E06B40F0200035
:100D7000E06384F839800320EFE720684168C90602
:100D8000E1D52068816841F00201816020688168B6
:100D900041F010018160012084F8390084F8386046
:100DA0000020DAE7F8B5044690F83800069D0128DF
:100DB00015D0012084F83800022084F8390020681A
:100DC000066826F00106066020460095FFF7E6FD5E
:100DD0002068016841F0010101600020F8BD022097
:100DE000F8BD00002DE9F04F90F83510022946D0EB
:100DF00001680A6822F001020A600268002111609D
:100E000002685160026891600268D16002681161F5
:100E1000026821215161DFF800C4DFF800844FF43B
:100E2000807B4FF4802EFE4AFB4BFD4CFA4DFC4E6E
:100E3000F94FDFF8EC93DFF8E0A30168483B60343A
:100E400018351836303F09F178090AF1300A614542
:100E500039D9A3F1040CDCF800C091422ED099429C
:100E60002CD0A1422AD0A94228D0B14205D0B94203
:100E700003D0494501D0514504D1D8461EE0012098
:100E8000BDE8F08FDFF8988308F13008414511D0B4
:100E9000DFF88483A8F1180841450BD0DFF8808380
:100EA00008F19008414505D0DFF86C8308F1480847
:100EB000414501D1F04601E04FF08078D6494CEA37
:100EC000080C4C393DE0DFF858C30CF1A80C614523
:100ED0003AD9DFF844C3ACF1500CDCF800C09142C1
:100EE0002BD0994229D0A14227D0A94225D0B14286
:100EF00005D0B94203D0494501D0514501D1D8466A
:100F00001BE0DFF81C8308F13008414511D0DFF801
:100F10000883A8F1180841450BD0DFF8048308F1D5
:100F20009008414505D0DFF8F08208F148084145B6
:100F300001D1F04601E04FF08078B7494CEA080C47
:100F40005039C1F800C072E0DFF8D4C20CF1480C8F
:100F50006145DFF8D0C235D9DCF80CC091422BD006
:100F6000994229D0A14227D0A94225D0B14205D02B
:100F7000B94203D0494501D0514501D1D8461BE0C3
:100F8000DFF89C8208F13008414511D0DFF88882F3
:100F9000A8F1180841450BD0DFF8848208F19008C9
:100FA000414505D0DFF8708208F14808414501D17C
:100FB000F04601E04FF080789A494CEA080CC1F8FD
:100FC0000CC034E0DCF808C091422BD0994229D003
:100FD000A14227D0A94225D0B14205D0B94203D0C1
:100FE000494501D0514501D1D8461BE0DFF8308298
:100FF00008F13008414511D0DFF81C82A8F118082B
:1010000041450BD0DFF8188208F19008414505D022
:10101000DFF8048208F14808414501D1F04601E0BB
:101020004FF080787F494CEA080CC1F808C0DFF81F
:10103000E8C101684FF4006B4FF4001E61453AD9D6
:10104000DFF8D4C1ACF14C0CDCF800C0914205D003
:10105000994203D0A14201D0A94201D1202125E02B
:10106000B14205D0B94203D0494501D0514501D123
:1010700059461BE0DFF8A88108F13008414511D03E
:10108000DFF89481A8F1180841450BD0DFF8908172
:1010900008F19008414505D0DFF87C8108F1480847
:1010A000414501D1714601E04FF000614CEA010C6D
:1010B00059494C393FE0DFF868C10CF1A80C614593
:1010C0003CD9DFF854C1ACF1500CDCF800C09142BF
:1010D00005D0994203D0A14201D0A94201D12021DB
:1010E00025E0B14205D0B94203D0494501D0514570
:1010F00001D159461BE0DFF8288108F1300841454D
:1011000011D0DFF81481A8F1180841450BD0DFF8A1
:10111000108108F19008414505D0DFF8FC8008F106
:101120004808414501D1714601E04FF000614CEAA9
:10113000010C39495039C1F800C07FE0DFF8E0C048
:101140000CF1480C6145DFF8DCC037D9DCF80CC085
:10115000914205D0994203D0A14201D0A94201D1C8
:10116000202125E0B14205D0B94203D0494501D044
:10117000514501D159461BE0DFF8A48008F1300841
:10118000414511D0DFF89080A8F1180841450BD0F7
:10119000DFF88C8008F19008414505D0DFF87880B1
:1011A00008F14808414501D1714601E04FF0006166
:1011B0004CEA010C1B49C1F80CC03FE0DCF808C048
:1011C000914205D0994203D0A14201D0A94201D158
:1011D00020212EE0B14205D0B94203D0494501D0CB
:1011E000514501D1594624E0DFF8348008F1300838
:1011F00041451AD0DFF82080A8F11808414514D0E5
:10120000DFF81C8008F1900841450ED0DFF8088017
:1012100008F14808414507E0586402400400800096
:10122000106002400060024001D1714601E04FF0C1
:1012300000614CEA010CFB49C1F808C0DFF8E8C3C3
:1012400001684FF4007B4FF4002E61453AD9DFF876
:10125000D8C3ACF14C0CDCF800C0914205D09942E7
:1012600003D0A14201D0A94201D1082125E0B14219
:1012700005D0B94203D0494501D0514501D1594665
:101280001BE0DFF8A08308F14008414511D0DFF8EA
:101290009883A8F1180841450BD0DFF8888308F13E
:1012A000A008414505D0DFF8808308F14808414592
:1012B00001D1714601E04FF000714CEA010CDA49AE
:1012C0004C393FE0DFF85CC30CF1B80C61453CD908
:1012D000DFF854C3ACF1500CDCF800C0914205D0EB
:1012E000994203D0A14201D0A94201D1082125E0B1
:1012F000B14205D0B94203D0494501D0514501D191
:1013000059461BE0DFF81C8308F14008414511D025
:10131000DFF81483A8F1180841450BD0DFF80483E7
:1013200008F1A008414505D0DFF8FC8208F1480823
:10133000414501D1714601E04FF000714CEA010CCA
:10134000B9495039C1F800C076E0DFF8D8C20CF1D5
:10135000580C6145DFF8CCC237D9DCF80CC091429B
:1013600005D0994203D0A14201D0A94201D1082160
:1013700025E0B14205D0B94203D0494501D05145DD
:1013800001D159461BE0DFF89C8208F14008414535
:1013900011D0DFF89482A8F1180841450BD0DFF88E
:1013A000848208F1A008414505D0DFF87C8208F16D
:1013B0004808414501D1714601E04FF000714CEA07
:1013C000010C9849C1F80CC036E0DCF808C0914225
:1013D00005D0994203D0A14201D0A94201D10821F0
:1013E00025E0B14205D0B94203D0494501D051456D
:1013F00001D159461BE0DFF82C8208F14008414535
:1014000011D0DFF82482A8F1180841450BD0DFF88D
:10141000148208F1A008414505D0DFF80C8208F1DC
:101420004808414501D1714601E04FF000714CEA96
:10143000010C7C49C1F808C0DFF8ECC10168DFF895
:10144000EC814FF4803B4FF4800E614539D9DFF8D1
:10145000D8C1ACF14C0CDCF800C0914205D09942E7
:1014600003D0A14201D0A94201D1414624E0B142BA
:1014700005D0B94203D0494501D0514501D14021A1
:101480001AE0DFF8A08108F14008414511D0DFF8EB
:101490009881A8F1180841450BD0DFF8888108F140
:1014A000A008414505D0DFF8808108F14808414592
:1014B00001D1594600E071464CEA010C5A494C39B9
:1014C0003EE0DFF860C10CF1B80C61453BD9DFF8B4
:1014D00058C1ACF1500CDCF800C0914205D09942E3
:1014E00003D0A14201D0A94201D1414624E0B1423A
:1014F00005D0B94203D0494501D0514501D1402121
:101500001AE0DFF8208108F14008414511D0DFF8EA
:101510001881A8F1180841450BD0DFF8088108F1BF
:10152000A008414505D0DFF8008108F14808414591
:1015300001D1594600E071464CEA010C3A49503954
:10154000C1F800C07AE0DFF8DCC00CF1580C61454E
:10155000DFF8D0C036D9DCF80CC0914205D09942F2
:1015600003D0A14201D0A94201D1414624E0B142B9
:1015700005D0B94203D0494501D0514501D14021A0
:101580001AE0DFF8A08008F14008414511D0DFF8EB
:101590009880A8F1180841450BD0DFF8888008F141
:1015A000A008414505D0DFF8808008F14808414592
:1015B00001D1594600E071464CEA010C1949C1F8C5
:1015C0000CC03BE0DCF808C0914205D0994203D042
:1015D000A14201D0A94201D141462AE0B14205D041
:1015E000B94203D0494501D0514501D1402120E005
:1015F000DFF8308008F14008414511D0DFF828803D
:10160000A8F1180841450BD0DFF8188008F1A008B0
:10161000414505D0DFF8108008F14808414507D161
:10162000594606E000600240586402400100800014
:1016300071464CEA010C5D49C1F808C0DFF870C181
:1016400001684FF4806B4FF4801E614515D9DFF8B7
:101650006081A8F14C081AE0A94221D1102107E0CD
:10166000514524D1594603E0714601E04FF08061B5
:101670004CEA010CC8F800C08FE0DFF830C10CF173
:10168000B80C614524D9DFF82881A8F15008D8F8B2
:1016900000C09142E2D09942E0D0A142DED0DBE727
:1016A000B142DFD0B942DDD04945DBD0D8E73F4A6F
:1016B00040329142D8D03E4A183A9142D4D03B4A67
:1016C000A0329142D0D03A4A48329142CED1CBE7B3
:1016D000DFF8D8C0DFF8D4800CF1580C61452ED962
:1016E000D8F80CC0914205D0994203D0A14201D054
:1016F000A94201D110211DE0B14205D0B94203D069
:10170000494501D0514501D1594613E0274A40329D
:1017100091420BD0264A183A914207D0234AA03270
:10172000914203D0224A4832914201D1714601E0F0
:101730004FF080614CEA010CC8F80CC02DE0D8F8DD
:1017400008C0914205D0994203D0A14201D0A942DC
:1017500001D110211DE0B14205D0B94203D0494565
:1017600001D0514501D1594613E0104A403291420F
:101770000BD00F4A183A914207D00C4AA03291423E
:1017800003D00B4A4832914201D1714601E04FF03B
:1017900080614CEA010CC8F808C00021C16480F8DF
:1017A000351080F834100846BDE8F08F0060024024
:1017B0005864024070B5D0B10221446A80F83510F7
:1017C00003681A6816490A40D0E901152943D0E98F
:1017D0000356354329434569294385692943C5692A
:1017E0002943056A29431143042C02D005E0012056
:1017F00070BDD0E90B242243114319600368596975
:10180000426A21F007011143042A01D1826A11437F
:1018100059610021C164012180F83510002070BD9C
:101820003F8014F0044901B50868009A10440A6822
:101830008242FCD308BD0000880000202DE9F04F53
:101840000022DFF8E8E101254FF0030B4FF00F0A0B
:101850000B6805FA02F42340A3427DD14E68022EA4
:1018600001D0122E14D156070F694FEAD66C07FA31
:101870000CF9D60800EB8606376A0AFA0CF827EA54
:1018800008073762D6F820C04CEA090CC6F820C019
:10189000D0F800C056000BFA06F72CEA070CC0F887
:1018A00000C091F804C0D0F800800CF0030C0CFAD2
:1018B00006FC4CEA080CC0F800C0D1F804C0BCF12A
:1018C000010F08D0BCF1020F05D0BCF1110F02D0FE
:1018D000BCF1120F1FD1D0F808C02CEA070CC0F8D9
:1018E00008C0D1F80CC0D0F808800CFA06FC4CEA0D
:1018F000080CC0F808C0D0F804C02CEA040CC0F8EA
:1019000004C0D0F804C00C79C4F3001494404CEA2D
:10191000040CC0F804C0C468BC43C4608C68B44004
:10192000C6683443C4604C68E40079D5404C2668EE
:1019300046F4804626609407270F3E4C22F0030CA5
:1019400064440AFA07F6D4F808C82CEA060CC4F86E
:1019500008C8394EB04200E062E001D100262DE017
:10196000364EB04201D1012628E0354EB04201D1B9
:10197000022623E0334EB04201D103261EE0324E50
:10198000B04201D1042619E0304EB04201D1052603
:1019900014E02F4EB04201D106260FE02D4EB0428A
:1019A00001D107260AE02C4EB04201D1082605E0FD
:1019B0002A4EB04201D1092600E00A26BE40D4F8E2
:1019C00008783E43C4F80868DEF8006074469E4319
:1019D000CEF80060154E361D37689F4337604F685C
:1019E000FF0302D527681F4327604C68A40302D574
:1019F00034681C4334600D4C083426689E432660CE
:101A0000261D37689F4337604F68FF0202D527685D
:101A10001F4327604C68A40202D534681C4334601D
:101A2000521C102AFFF414AFBDE8F08F003C0140B7
:101A300044380240003001400000024000040240EF
:101A400000080240000C0240001002400014024056
:101A500000180240001C0240002002400024024006
:101A60000AB1018370474183704700000148006854
:101A7000704700008800002002480168491C01608E
:101A800070470000880000200C4810B5016841F440
:101A900000710160016841F480610160016841F4F6
:101AA000807101604FF47A5000F08CFD032000F04B
:101AB000DBF800F0ACF8002010BD0000003C024054
:101AC0002DE9F041044690F8A00016460F46012883
:101AD0001DD0012584F8A050022084F8A10006EB57
:101AE000860000EBC60004EB800034223830FEF79D
:101AF00093FB32463946204600F09AFE2068456244
:101B000084F8A150002084F8A000BDE8F0810220F4
:101B1000FBE7000070B5040003D094F8A10010B1F9
:101B200004E0012070BD204600F070F8022084F827
:101B3000A1002068816921F070418161D4E901012F
:101B40000843D4E903121143084321688A6910430A
:101B5000886121688A682C4802408A60A18A0B0447
:101B600021688A68A5692A431A438A602168CA687D
:101B70000240CA60A18B0B042168CA68256A2A4307
:101B80001A43CA6021680A6902400A612268A18C6E
:101B90001369A56A2B4343EA0143136121684A692B
:101BA00002404A61A08D216802044869236B1843F2
:101BB0001043486194F835002168020294F8360019
:101BC000CB6A03F07F43CB622168CB6A94F8345030
:101BD00042EA00402B430343CB622068416B41F053
:101BE000040141632068416B41F0020141632068B8
:101BF000816941F0010181610020C4F8A400012045
:101C000084F8A100002070BD00F800F07047704714
:101C100000F01F02012191404009800000F1E02006
:101C2000C0F8001170470000F0B40E4B1B680C4662
:101C3000C3F30223C3F10705042D00D90425191DA0
:101C4000072901D2002300E0DB1E012606FA05F178
:101C5000491E214099409E40761E16403143F0BCFB
:101C600000F0F7BE0CED00E0064900F0070208683E
:101C70004FF6FF03184040EA0220034A1043086071
:101C8000704700000CED00E00000FA052DE9F0417E
:101C90001348016841F080510160124F01263E64F3
:101CA000FFF7E4FE00F57A750F4C03E0FFF7DEFE68
:101CB000A8420DD26068C003F8D57E64FFF7D6FE57
:101CC00000F57A7507E000BFFFF7D0FEA84202D307
:101CD0000320BDE8F08160688003F5D50020F8E7B7
:101CE0004038024000000E42007000402DE9F05FD5
:101CF00004460068DFF838B28E4E8F4DC1074FF0B2
:101D0000E0474FF000084FF0010901D180074AD5A4
:101D1000CBF86880FFF7AAFE00F1640A04E000BF78
:101D2000FFF7A4FE50457CD228680001F8D4207843
:101D3000C10782480FD047F6C07292FAA2F26168DA
:101D4000B2FA82F2914097FAA7F3A268B3FA83F34A
:101D50009A40114301602178890716D5016897FAE6
:101D6000A7F201F0E041B2FA82F2D1406268237B2F
:101D7000920142EA036242EA017101603068E1695E
:101D800020F01F00491E08433060CBF86890FFF731
:101D90006DFE00F1640A03E0FFF768FE504540D293
:101DA00028680001F8D52068410701D4000759D5FB
:101DB000CBF87080FFF75AFE00F1640A04E000BF20
:101DC000FFF754FE50452CD22868C0438000F7D559
:101DD000207841075A4819D5016897FAA7F201F00F
:101DE000E041B2FA82F2D1402269237D920142EAB7
:101DF000036242EA017101603168226A6FF0FF03F9
:101E000021F4F85103EB02221143316021780907D4
:101E100019D501684FF0706201F0706192FAA2F278
:101E200000E05BE0B2FA82F2D1402269920142EA1C
:101E30000161227E41EA027101603068616A20F42A
:101E4000403008433060CBF87090FFF70FFE00F190
:101E5000640603E0FFF70AFEB0423FD22868C043A1
:101E60008000F7D4207880064FD533484030016891
:101E700041F080510160334D286840F48070286043
:101E8000FFF7F4FD00F1640604E000BFFFF7EEFD8C
:101E9000B04223D22868C005F8D5284D143D2868E3
:101EA000218D00F4407001F44071884208D0286808
:101EB000254920F44070C1F80090C1F800802860E6
:101EC000A06AB0F5807F0FD1FFF7D0FD41F28831D5
:101ED000461806E0FFF7CAFDB04202D30320BDE872
:101EE000F09F28688007F5D5A16A1348C1F3012245
:101EF0000830032A13D0016821F4F8110160286822
:101F0000218DC1F30B01084328602078C00604D559
:101F10000E4994F82C00C1F8E0010020DFE70268C8
:101F20000B4B22F4F81219400A430260E7E7000065
:101F3000000047428C38024000380240843802409A
:101F40008838024000700040400E4742001047426F
:101F5000FFFCFF0F2DE9F047DFF8A09105460E4684
:101F6000D9F80000664C00F00F016548083406F00F
:101F7000FF0841F28837B14243D289F80080D9F88E
:101F8000001001F00F01B14275D12978C90724D0A2
:101F90006968012913D00068022913D0800700283E
:101FA00076DA206820F0030008432060FFF75EFD2A
:101FB000C619686801280BD0022813D01CE00068FD
:101FC0008003ECE78001EAE7FFF750FDB0424FD213
:101FD0002068C0F381000128F6D15BE0FFF746FDE1
:101FE000B04245D22068C0F381000228F6D151E00A
:101FF000FFF73CFDB0423BD2206810F00C0FF7D148
:1020000048E02978C9073BD06968012913D00068E6
:10201000022913D0800700283ADA206820F0030054
:1020200008432060FFF722FD0744686801280BD0B1
:10203000022813D020E000688003ECE78001EAE783
:10204000FFF714FDB84213D22068C0F381000128C5
:10205000F6D115E0FFF70AFDB84209D22068C0F3B7
:1020600081000228F6D10BE0FFF700FDB84203D350
:102070000320BDE8F0870BE0206810F00C0FF3D1CF
:1020800089F80080D9F8000000F00F00B04201D0BC
:102090000120EEE72878800705D52068A96820F0A0
:1020A000F000084320602878400705D52068E968DB
:1020B00020F4E050084320602878000706D5206807
:1020C000296920F4604040EAC100206000F01CF85B
:1020D0004FF47A71B0FBF1F0401EB0F1807F0AD26C
:1020E0004FF0E0214861074AF02082F8140D0020EB
:1020F0008861072008610020BBE70000003C024027
:10210000003802400FE000E000B500F043F8084955
:102110000968F02292FAA2F201F0F001B2FA82F21A
:10212000D140044A515CC8400349086000BD00002A
:1021300008380240C47F00087400002000B5FFF793
:10214000E3FF074909684FF4E05292FAA2F201F462
:10215000E051B2FA82F2D140024A515CC84000BD5F
:1021600008380240C47F000800B5FFF7CDFF0749DB
:1021700009684FF4604292FAA2F201F46041B2FAA7
:1021800082F2D140024A515CC84000BD083802408A
:10219000C47F000830B51D48006810F00C011C48D1
:1021A0001AD01C4C042916D0082915D11749091F2B
:1021B0000A6802F03F030A6802F480054FF48002C7
:1021C00092FAA2F2B2FA82F2D54047F6C07204D077
:1021D000B4FBF3F003E0204630BDB0FBF3F00B6836
:1021E0000968134092FAA2F2B2FA82F2D34058433D
:1021F0004FF4403292FAA2F201F44031B2FA82F284
:10220000D140491C4900B0FBF1F030BD0838024014
:102210000024F40040787D012DE9F84F0446007851
:10222000DFF8FC92BF4DC0074FF0000649D0D9F847
:1022300000104846C1F38101012908D00068C0F3AD
:10224000810002280AD1281D0068400206D52868AE
:10225000800336D56068012874D132E0DFF8C4A26B
:102260000AF1020A8AF80060FFF700FC41F28837A1
:1022700000EB070804E000BFFFF7F8FB40457BD206
:1022800028688003F8D420798AF800006068012863
:1022900003D0FFF7EBFB074410E0FFF7E7FB074431
:1022A00004E000BFFFF7E2FBB842E8D228688003F1
:1022B000F8D506E0FFF7DAFBB842E0D228688003E1
:1022C000F8D42078984F80074FF0010B43D5D9F808
:1022D0000010484611F00C0F09D00068C0F38100CF
:1022E00002280BD18E48001F0068400206D42868DF
:1022F000800730D5E0680128AED12CE0E068D8B185
:10230000C7F800B0FFF7B2FB00F1640804E000BFBB
:10231000FFF7ACFB4045B2D228688007F8D52868A3
:10232000F82292FAA2F22169B2FA82F220F0F800C1
:102330009140084328600EE03E60FFF797FB00F1F4
:10234000640805E0EAE000BFFFF790FB404513D2C8
:1023500028688007F8D42078000727D5DFF8C0A1C7
:10236000724861690AF16C0A89B1C0F800B0FFF7E0
:102370007DFB00F1640805E07EE000BFFFF776FB1F
:10238000404579D2DAF800008007F7D50EE0066004
:10239000FFF76CFB00F1640804E000BFFFF766FB89
:1023A000404569D2DAF800008007F7D4207840076A
:1023B00052D55B483830016841F080510160DFF848
:1023C00070A1DAF8001041F48071CAF80010FFF72C
:1023D0004DFB00F1640803E0FFF748FB40454BD29A
:1023E000DAF80000C005F7D5DFF8348108F1680895
:1023F00088F80060FFF73AFB41F2883A50440090B9
:1024000005E000BFFFF732FB009988427ED2D8F882
:1024100000008007F6D4207A88F80000A068012820
:1024200003D0FFF723FB824412E0FFF71FFB824437
:1024300004E000BFFFF71AFB504567D2D8F8000050
:102440008007F7D508E000BFFFF710FB50455DD2CD
:10245000D8F800008007F7D4A069E8B3D9F80010D5
:10246000C1F38101022959D002283E6605D0FFF749
:10247000FDFA00F164044CE048E0FFF7F7FA00F1E0
:10248000640603E0FFF7F2FAB0423FD22868800109
:10249000F8D4D4E90710084347F6C07292FAA2F2C2
:1024A000616AB2FA82F29140A26A4FF0FF3303EB05
:1024B00052024FF4403393FAA3F3B3FA83F39A40F2
:1024C000114308434FF0706292FAA2F2E16AB2FA45
:1024D00082F29140084300E01EE040F000511048B5
:1024E000001F0160C7F860B0FFF7C0FA00F1640494
:1024F00004E000BFFFF7BAFAA04207D228688001C3
:10250000F8D509E0FFF7B2FAA04202D30320BDE8F4
:10251000F88F28688001F5D40020F8E70120F6E75D
:10252000083802400038024000004742800E47420F
:102530000070004070B50D46040003D094F82C00E4
:1025400010B104E0012070BD204600F011F8022017
:1025500084F82C00211D2068FEF7CAFAD4E9000295
:102560002946FEF70BFB012084F82C00002070BDEB
:10257000704710B5044690F82C00022809D00220BC
:1025800084F82C002068FEF7D0FA012084F82C0093
:10259000002010BD70B5044690F82C000D460228AE
:1025A0000DD0022084F82C002068FEF7C4FA2868B9
:1025B000022805D05FF0010084F82C00002070BDD7
:1025C0000520F9E710B5401EB0F1807F01D301204E
:1025D00010BD4FF0E02460610F21601700F039FA60
:1025E0000020A06107202061002010BD10B504006C
:1025F00003D094F8390010B104E0012010BD20464A
:1026000000F022F8022084F839002068C16821F423
:102610000051C160204602F02FFE2068016921F4BC
:10262000904101612068416921F02A0141612068DF
:10263000C16841F40051C160002084F83A000120D3
:1026400084F83900002010BD30B5134885B001680A
:1026500041F001010160016841F0010101600E4893
:102660001430016841F01001016040150090022013
:102670000121CDE901010724CDE90304074D694695
:102680002846FFF7DBF82815009069460494284691
:10269000FFF7D4F805B030BD3038024000000240EA
:1026A000FEE7000008480749016100218180C180E0
:1026B0000181418181810122027041708170C1706C
:1026C000C1817047800000FF0000002010B5FFF7B7
:1026D000E9FFBDE810404FF0FF30FDF78BBE000072
:1026E0002DE9F04106461B48FEF738F81A4F3846E8
:1026F000FEF742F8FDF77AFF84B2FDF787FF154D2C
:1027000001462246E888091A001D091F83B289B2D2
:102710000020FDF729FF3C162046FEF72DF838462D
:10272000FEF70EF802F074FEFDF770FFE988012352
:10273000401A81B232460020FDF792FE2046FDF796
:10274000FFFF05487F38FEF717F82846BDE8F0413F
:10275000FEF704B868000020FF0000FF2DE9F041FB
:1027600005461848FDF7FAFF174E3046FEF704F805
:1027700002F04EFEFDF73AFF124C82B20021E088D3
:1027800000EB400083B20846FDF7EEFE37163846F0
:10279000FDF7F2FF3046FDF7D3FF02F039FEE18886
:1027A00001232A460020FDF75BFE3846FDF7C8FFEF
:1027B00005487F38FDF7E0FFBDE8F0410348FDF72D
:1027C000CDBF000060000020FF0000FF6800002077
:1027D0002DE9F8430E460746DDE90818124815466C
:1027E0004FF4403242600022C0E902210F491C46EA
:1027F0000160FEF737FA002814D139460A48FEF77F
:10280000EFF900280ED12B46324641460648009487
:10281000FEF7C8FA002805D1BDE8F8430A210248AE
:10282000FEF74CBABDE8F883C033002000B0024088
:10283000F0B503688C88DD68C5F30B452C4425048E
:10284000882404EBC2141E5906F470461E51036816
:102850000F68DE68C6F30B46761C3E442E431E51BD
:1028600004688B89E568C5F30A052B441D048C2395
:1028700003EBC213E65806F47046E65004688F680E
:10288000E668C6F30A06761C3E442E43E6509423BF
:10289000046803EBC213E55825F00705E550056809
:1028A0000C69EC5091F831300C7E1F0226069C24F6
:1028B000056804EBC21491F8323055F804C04FF0AB
:1028C000000C45F804C091F8305046EA03433D43FC
:1028D0001D4303681D519823046803EBC213E55898
:1028E00025F0FF05E55005684C69EC50A02304680D
:1028F00003EBC213E55840F20776B543E550D1E942
:1029000007452C430568EC50AC23046803EBC21365
:10291000E55844F803C005684C6AEC500B696BB38A
:10292000012B2DD0042B2DD0022B2BD0032B29D003
:10293000072B27D00123B025046805EBC215665983
:1029400006F0E02666518C6A5C43E31C43EA0443CC
:1029500004686351B423046803EBC213E5586FF3B2
:102960000A05E5500468C96AE1500168842000EB5B
:10297000C2100A5842F001020A50F0BD0423DAE7FF
:102980000323D8E70223D6E7FEE7000070B52A4804
:1029900086B0016841F08061016027481438016801
:1029A00041F400010160016841F01001016001681B
:1029B00041F020010160016841F0400101600168BF
:1029C00041F080010160016841F480710160702074
:1029D000022400258DE831000E26CDE90346694624
:1029E0001648FEF72BFF60028DE83100CDE9034663
:1029F00069461348FEF722FF4FF4E6508DE8310098
:102A0000CDE9034669460F48FEF718FF4FF60C70F4
:102A10008DE83100CDE9034669460B48FEF70EFF0D
:102A200040F2F7708DE83100CDE90346694607486A
:102A3000FEF704FF06B070BD4438024000100240AB
:102A40000014024000180240001C02400020024016
:102A500070470907090E002806DA00F00F0000F1A0
:102A6000E02080F8141D704700F1E02080F8001489
:102A70007047704702480068002800D00047704740
:102A8000C000002010B5044600F09CF83B4900202F
:102A9000424A08703A4908703A4908703A49086051
:102AA0003A4908603A4908703A4908703A4908704A
:102AB000116831B13A49096819B1126801C1521E51
:102AC000FCD13849086038490860384908603849FD
:102AD0000860384908603849086038490860384952
:102AE000087001F0C3FA01F0F9FA204601F088F805
:102AF0002088002841D1204601F0DCF820880028F9
:102B00003BD1204601F0E2F82088002835D120464C
:102B100001F044F9208800282FD1204601F0D2FA94
:102B20002088002829D1204601F062FB2088002857
:102B300023D1204601F02CFD208800281DD12046FD
:102B400001F084F82088002817D1204602F004F80C
:102B50002088002811D1204601F078FC2088002828
:102B60000BD1204602F04CF82088002805D101F056
:102B700045F8BDE81040FFF77CBF10BDD400002031
:102B8000DC000020020100204C0100205001002048
:102B9000F6000020F7000020F8000020E47F000885
:102BA000E07F0008B4000020B8000020BC00002036
:102BB000C0000020C4000020C8000020CC0000207D
:102BC0002E010020054806490068096800EB8100D5
:102BD000044920F00700086070470000E07F00080B
:102BE000E47F0008A8000020184810B500780128EC
:102BF0002BD1FDF7FBFA04461548017801B3491EB5
:102C000011F0FF0101701BD112480078C0B901F02A
:102C10001BFA11490870114900EB400051F82010CF
:102C20000F4801600F480068814209D051F8900FA9
:102C3000401C08600C480168491C0160FDF752FB0C
:102C40002046BDE81040FDF7D5BA10BDDC000020DD
:102C5000D400002002010020F7000020E0480020FE
:102C6000500100204C010020240100202DE9F041FA
:102C7000044618480E461546007810B142F6E16049
:102C800025E014B3FDF7B2FA0746FDF75DFE1248E2
:102C9000C4E900060026266284F825604020A6626A
:102CA00084F8240004F1080001F00FF9204601F037
:102CB00063F80A490888401C0880FDF755FE38462D
:102CC000FDF798FA2E80BDE8F08145F6C3501080DC
:102CD000F9E70000D40000204D555458F4000020BE
:102CE0002DE9F04F06466C4889B01C460078129DCD
:102CF00090468A4610B146F2AE10ACE046B1B8F14B
:102D0000000F08D0B8F5004F05D045F62560A2E0C9
:102D100045F6C3509FE061493068884202D045F6CD
:102D2000C45098E04FF000090CB1C4F80090FDF7D2
:102D30005DFA8346FDF708FE96F82500584988B1EC
:102D4000376A0A68974223D1401C86F825000CB1E7
:102D5000B06A2060FDF708FE5846FDF74BFA45F2D1
:102D6000827078E00868306290F8370086F82400B6
:102D7000012086F825000CB1B06A2060FDF7F4FD53
:102D80005846FDF737FAA5F8009009B0BDE8F08F76
:102D90005FEA084007D5FDF7E7FD5846FDF72AFA38
:102DA00046F2B01057E03F48007838B1FDF7DCFD3F
:102DB0005846FDF71FFA46F663504CE0884697F8F0
:102DC000370092F8371088421ED997F83600082845
:102DD0003AD2DFE800F0041316161313161638461D
:102DE00001F0DCF9D8F8000090F8370087F83700D8
:102DF00001F048F9384601F09BF905E087F83710F3
:102E000002E0384601F048F853460422314668464D
:102E100000F0D0FFFDF7A8FD5846FDF7EBF900F0F4
:102E2000DFF8FDF7E3F90646FDF78EFDD8F8001050
:102E300091F8350088B1012815D0022825D0032843
:102E400017D046F62E6019E0FDF78EFD5846FDF7C7
:102E5000D1F946F62D60288097E70CB1086C206008
:102E6000A5F800900BE00CB1086C206046F2A910A8
:102E700004E00CB1C4F8009047F2D9202880FDF797
:102E800073FD3046FDF7B6F97FE70CB1086C2060A2
:102E900045F6C250F2E70000D40000204D555458CA
:102EA0004C010020020100202DE9F84F044648485B
:102EB00015468946007810B146F20E2011E03CB16B
:102EC000080008D0B1F5004F05D045F6256008E0B0
:102ED00045F6C35005E03F492068884204D045F6D6
:102EE000C4501080BDE8F88FFDF780F98346FDF7E8
:102EF0002BFDDFF8E480216AD8F80000814207D07A
:102F0000FDF732FD5846FDF775F945F2817012E084
:102F1000FDF742FD0646A06294F82500401E10F021
:102F2000FF0084F8250008D0FDF71EFD5846FDF788
:102F300061F945F283702880D4E7208A04F10807FC
:102F40004FF0000AC8B3D8F8001094F8243091F874
:102F500037209A4214D0084601F020F9D8F8001022
:102F600094F8240081F8370001F08CF8D8F80000BC
:102F700001F0FAF8D8F80000184990F83700087006
:102F8000386800231A468168216291F8370084F876
:102F90002400012084F825002046009600F0F5FF6B
:102FA000FDF7E2FC5846FDF725F95FEA094001D438
:102FB00000F016F8A5F800A094E7FFE75646C4F81D
:102FC00020A0FDF7D1FC5846FDF714F92E8089E7C3
:102FD000D40000204D5554584C010020F60000202C
:102FE000154810B50078002824D11448007800282E
:102FF00020D1FDF7FBF8044601F026F810490870CF
:10300000104900EB400051F820000F4908600F49BB
:103010000968884209D050F8901F491C01600C488B
:103020000168491C0160FDF758F92046BDE81040D1
:10303000FDF7E0B810BD0000D40000200201002020
:10304000F7000020E0480020500100204C01002043
:103050002401002070B504461148007810B146F6EE
:1030600062501BE00F480078012802D045F68960C5
:1030700014E00D4D2878FA2802D345F209200DE01E
:10308000FDF7B4F80646FDF75FFC2878401C287071
:10309000FDF76AFC3046FDF7ADF80020208070BDDA
:1030A000D4000020DC0000200201002070B504469E
:1030B0001748007810B146F6655027E015480078AB
:1030C000012802D045F6896020E0134D287890B1A0
:1030D000FDF78CF80646FDF737FC2878401E10F007
:1030E000FF0028700AD0FDF73FFC3046FDF782F85C
:1030F00046F663500AE046F6645007E0FDF734FCFC
:103100003046FDF777F8FFF76BFF0020208070BD99
:10311000D4000020DC0000200201002070B50F4D1B
:103120000446287818B145F68A60208070BD00F00A
:103130008BFF0B4908700B4908700B4900EB4000EE
:1031400051F82000094908600949086001202870E9
:10315000FDF7B2F843F69920E7E70000DC00002015
:10316000F7000020F6000020E04800205001002079
:103170004C0100202DE9F0410646FDF737F80446E2
:10318000FDF7E2FB2A48002505802A4805602A4809
:1031900005602A4805602A4805602A480581FDF730
:1031A000E3FB2046FDF726F8FDF720F80746FDF77C
:1031B000CBFB2548046816E0FDF718F80746FDF735
:1031C000C3FBC4F8B45044F8785F2563A561A582B9
:1031D000E5826562A562FDF7DFFB44F8200FA4F1EC
:1031E00034008581646AFDF7BFFB3846FDF702F8BD
:1031F000002CE1D1FCF7FAFF0746FDF7A5FB1348C9
:10320000046806E0FCF7F2FF0746FDF79DFBA58585
:10321000A469FDF7A9FB3846FCF7ECFF002CF1D1BF
:1032200001F0E6FB01F0BAFD3580BDE8F081000059
:103230000E01002020010020340100203C0100206C
:10324000D8000020D448002028010020FC000020E5
:10325000F8B504466946244800F064FBBDF8000058
:1032600058BB6A460021022000F096FBBDF8000022
:1032700018BBFCF7BBFF0746FDF766FB1B4E00259E
:103280003560FDF771FB3846FCF7B4FF1849194863
:103290000A6803689A4202D9B2FBF3F010B90A2116
:1032A000B2FBF1F06A46002100F076FB69460E4859
:1032B00000F064F9BDF8000008B12080F8BDFCF70B
:1032C00095FF0746FDF740FB0B480C490560306849
:1032D00008600B4901200870FDF746FB3846FCF7F3
:1032E00089FF2580F8BD0000684D002010010020F6
:1032F00008800008F47F000820010020140100204D
:103300001C01002002480068002800D000477047D8
:10331000C40000202DE9FF4F83B004465048DDE98A
:103320001785DDE910960078139F934610B147F298
:103330004A1025E054B1BBF1000F0AD066B14948EC
:10334000006887420BD246F6306019E047F2AD10B4
:1033500016E047F24F1013E046F62F6010E0129887
:10336000B84202D346F631600AE046F27320B9F162
:10337000400F05D2B9F13F0F06D13B498C4203D033
:10338000288007B0BDE8F08F204601F011F94FF01A
:10339000000AA5F800A05FEAC8700AD05FEA88704A
:1033A00007D530460021524601E004C0491CB9420D
:1033B000FBD31298CDE9007806EB80052B46324608
:1033C0005846069900F01AFAC4F828B00699E16246
:1033D0000499216284F83790A56020601598606593
:1033E0001698A76366626060A4F83C80002051468E
:1033F00004EB8002401CD16710F0FF00F8D004F10C
:103400006400149900F0B0FC204600F033F8FCF79B
:10341000EDFE0546FDF798FA94F8370000F032FE0D
:10342000204600F0A1FE204601F084F80F490888EC
:10343000401C08800E480078012807D0FDF794FA58
:1034400007B02846BDE8F04FFCF7D4BEFDF78CFA74
:103450002846FCF7CFFE07B0BDE8F04FFFF7C0BD30
:10346000D400002004800008104800202C01002017
:10347000DC00002002490968002900D00847704795
:10348000B400002070B5044634480D46007810B1F1
:1034900047F24E1004E03248844203D147F24C1008
:1034A000088070BD5CB9FCF7A1FE0646FDF74CFA3A
:1034B0002C480468FDF758FA3046FCF79BFEFCF7F1
:1034C00095FE0646FDF740FA94F8360008283CD2EF
:1034D000DFE800F004080C0C1C080C0C204600F07F
:1034E0005DFE13E0204601F067FA0FE0204601F090
:1034F00063FA94F83400072808D2DFE800F00704E4
:10350000070404040400204600F011FD04F16400E7
:1035100000F010FC204600F029F8204601F01CF8CD
:1035200011490888401E0880204601F041F8FF201C
:1035300084F83600FDF718FA3046FCF75BFE0020F1
:103540002880BDE87040FFF74BBDFDF70DFA30460F
:10355000FCF750FE46F62D60288070BDD400002098
:10356000104800204C0100202C010020024909686D
:10357000002900D008477047B800002070B5054604
:1035800012480C46007818B147F25510088070BDFB
:10359000FCF72CFE0646FDF7D7F91DB10C48006874
:1035A000854208D1FDF7E0F93046FCF723FE47F2EB
:1035B0005710208070BDFDF7D7F93046FCF71AFE92
:1035C00021462846BDE8704001F062B8D4000020D2
:1035D0004C01002002490968002900D008477047C3
:1035E000BC0000202DE9F04781464A4814461E469B
:1035F0000078884610B146F2AE1006E0080006D00A
:10360000B1F5004F03D045F6256018803DE0002756
:1036100004B12760FCF7EAFD8246FDF795F93E4DBF
:103620002968486CD8B1401E804648640CB1086CCB
:103630002060FDF7B1F929680A6C801AC1F8A4006E
:10364000D1F8A820824201D2C1F8A800FDF78CF978
:103650005046FCF7CFFD37804046BDE8F0875FEA73
:10366000084007D5FDF780F95046FCF7C3FD46F248
:10367000B01009E02948007848B1FDF775F95046C7
:10368000FCF7B8FD46F6635030800020E5E70021E6
:103690004B460722084600F08DFBFDF765F95046C2
:1036A000FCF7A8FDFFF79CFCFCF7A0FD8046FDF7AA
:1036B0004BF9286890F8351031B1012916D003294B
:1036C0001AD046F62E601BE074B1006C2060FDF746
:1036D00063F929680A6C801AC1F8A400D1F8A820FF
:1036E000824201D2C1F8A80037800AE00CB1006C18
:1036F000206046F2A91003E004B1276047F2D92008
:1037000030802868446CFDF72FF94046FCF772FDC5
:103710002046A2E7D40000204C0100200201002036
:1037200070B50D000646144607D0B5F5004F04D01D
:1037300045F625601080002070BDFDF72DF902468A
:10374000234629463046BDE8704001F009B8000024
:103750002DE9F0470546274816460F4600781C46D7
:1037600010B147F259100AE046F2D5203FB136B108
:10377000FCF73CFD8146FDF7E7F81DB104E0188039
:10378000BDE8F0871C4805684FF00008286858B16C
:1037900095F83C00C00713D0FDF7E6F84846FCF763
:1037A00029FD0020696A1AE0FDF7DEF84846FCF7BB
:1037B00021FDC7F8008047F25210C6F800800AE0E9
:1037C000FDF7D2F84846FCF715FDC7F8008047F230
:1037D0005410C6F800802080D2E7401C091D0A68FA
:1037E000002AFAD03860A96B081A3060A4F800806B
:1037F000C6E70000D40000204C0100202DE9FF4F57
:1038000000210D984FF0083E02EB800020F00700E9
:103810004FF0153240F8041C40E903214FF01432F8
:1038200040F8102C4FF0133240F8142C40F828ECDC
:1038300048384FF0023C4FF00138A0E802114FF039
:10384000103421054FF012324FF0113340F8101CA4
:10385000C0E908324FF0093BC0E906B44FF0063624
:103860004FF00735C0E903654FF0053A4FF00439D2
:10387000771080E88006009940F8141C284940E938
:10388000072140E909C7039940F8281C019940F82D
:103890003CEC40E90C31A0F150034FF0313183E8AA
:1038A0000206F10040F8541C4FF0293140F8581C32
:1038B0004FF0283140F85C1C4FF0273140F8601C75
:1038C0004FF0263140F8641C4FF0253140F8681C59
:1038D000510040F86C1C4FF0233140F8701C4FF041
:1038E000223140F8741C4FF0213140F8781C6100FF
:1038F00040F87C1C4FF0193140F8801CB10040F8B2
:10390000841C4FF0173140F8881DC0E914B4C0E999
:1039100011654FF0163140F8041D04B0BDE8F08F7A
:1039200049470008074A127812B147F25D1004E0D7
:10393000054A904203D147F25B100880704700F0BF
:1039400065BF0000D40000201048002070B50F486B
:10395000006800B180470E4C0E49002220680968BB
:10396000884207D0D0F898305B4240F8943F856891
:103970002B448360C1F89820FCF7C8FF2168D1F878
:10398000B420824201D2C1F8B40070BDC80000204A
:103990004C010020500100202DE9F041064621484D
:1039A0000D461446007810B147F275202AE01E48F3
:1039B000007810B146F6635024E045B1022D06D0E0
:1039C000042D05D0082D02D045F625601AE0BEB1C1
:1039D000FCF70CFC8046FCF7B7FF144F012123468F
:1039E00038682A4680F83610314600F079FF208882
:1039F00058B1FCF7B9FF4046BDE8F041FCF7FABB0F
:103A000047F27E201080BDE8F081386800F0C6FBE8
:103A1000FCF7AAFF4046FCF7EDFBFFF7E1FA0020B8
:103A20002080F0E7D4000020020100204C0100209B
:103A30002DE9F047434DDDE908642D7815B147F2D3
:103A400075207AE0404D2D7815B146F6635074E04C
:103A500016F00E0547F27E2945F6256705D0022DA2
:103A600003D0042D05D0082D06D113B90AB901B928
:103A7000F0B336F01E0C02D02780BDE8F087C6F305
:103A8000001647F2792C47F278284FF47A7736B14E
:103A900042F20F76B14211D9A4F800C0EDE7BB4263
:103AA00002D347F27B2048E03B2A02D947F27A2032
:103AB00043E03B29F0D8632802D804E0B84202D39F
:103AC000A4F80080D9E7214E4FF4FA7CC1EB011134
:103AD0003668BCFBF6FC63447343B3FBF7F34FF467
:103AE0006167784300EB8100104400FB063600E07C
:103AF00025E026B3FCF77AFB8046FCF725FF144F40
:103B00000121234638682A4680F83610314600F0F5
:103B1000E7FE208830B1FCF727FF4046BDE8F047BC
:103B2000FCF768BB386800F039FBFCF71DFF404626
:103B3000FCF760FBFFF754FA002020809DE7A4F813
:103B400000909AE7D40000200201002008800008BD
:103B50004C01002008B500F01BF86A460021084817
:103B6000FFF7DEFD07490868401E086007D10648D8
:103B70006A460068086000210448FFF7D1FD08BDCF
:103B8000A44C00204801002044010020684D002082
:103B900002480068002800D000477047CC00002091
:103BA00010B5FDF769FFFCF721FB0446FCF7CCFEDE
:103BB00007490878401C0870FCF7D6FE2046FCF741
:103BC00019FBFFF7C7FFBDE81040FFF70DB8000075
:103BD000D40000204FF0E021401E486106480268F2
:103BE00022F07F420260086940F005000861086920
:103BF00040F002000861704720ED00E070470000CF
:103C0000034A00211160034A1180018070470000BF
:103C1000E0000020E40000200A4C0B4DFCF7E6FA1F
:103C20000646FCF791FE2068401C20602868401C76
:103C30002860FCF799FE3046FCF7DCFAFEF71AFF25
:103C4000ECE70000D00000201001002000B50E4A73
:103C500089B0002111600B2205910691CDE9072062
:103C60000A480B4A0B4B006812681B680292CDE9A8
:103C700003013F20CDE900030023074A07A10C48B8
:103C8000FFF748FB09B000BDD0000020DC7F000832
:103C9000D87F0008D47F0008193C000875432F4FD7
:103CA000532D4949492049646C65205461736B0068
:103CB00010480020034A00211160034A118001804E
:103CC00070470000E8000020EC000020F0B5164C22
:103CD000216859B1154E318859B189B2491E2268FF
:103CE0008FB2002502F1100329460EE045F21E7145
:103CF00018E045F21D7115E0E2E802316D1C22F872
:103D0000081BADB242F8041C1033BD42F4D311605D
:103D100051601181D160064A236813603388938013
:103D2000D18011810180F0BDEC7F0008E87F0008A0
:103D3000D448002010B5428992B10A4903680C6842
:103D40001C6043680B60CB8844891B1BCB808B882D
:103D5000448923448B80002141818181016041603D
:103D6000104610BDD448002001810021418181818D
:103D700001604160704700000022074B05A14261CD
:103D8000C161196819B18161486118607047826129
:103D9000FBE7000020000000F0000020034A0021A3
:103DA0001160034A1180018070470000F00000207C
:103DB000F40000202DE9F041114D07460C4628681B
:103DC0000026194680F8342080F8356000F09CFB0E
:103DD00064B1FC6004F1080601223946286800F04D
:103DE00011F83946304600F075F802E02868C687B9
:103DF000066320462968BDE8F04100F01BB80000CA
:103E00004C01002010B5C2870024234601630EE058
:103E10004B6041F8103B641C41F8103BA4B241F8E0
:103E20000C3C21F8083C41F8043C41F8180C944241
:103E3000EED310BD38B14268C1F8C02081688968EE
:103E4000096AC161704791F83400022803D007283D
:103E500003D004A002E004A000E005A0C1F8C00067
:103E600070470000200000005461736B2051000077
:103E70005461736B2053656D0000000005A2C1F80A
:103E8000C020816811B18968096A00E001A1C1619F
:103E9000704700002000000070B580F83710C68F12
:103EA000056B0FE0EC68208A0834012807D9294601
:103EB000204600F04FF82946204600F00BF8761E09
:103EC000B6B22035002EEDD170BD002101604160F9
:103ED0000181704730B58A68002392F83740028923
:103EE0001AB1521C028102680BE0012202814B6070
:103EF0000B60016014E0956895F83750A54203D82F
:103F00005268002AF7D107E032B1146854B1C1E910
:103F100000426160116030BD4B6042680A605160D0
:103F2000416030BD1160C1E90032016030BD70B543
:103F30000646C48F056B07E0E8682946083000F0A4
:103F400009F8641EA4B22035002CF5D10020F087BA
:103F5000306370BD10B502890023012A0BD00A68B6
:103F600062B14C6874B1546022600289521E0281B1
:103F70004B600B6010BD03604360F6E74A68136056
:103F80000260F2E753604260EFE7F8B50C46064680
:103F900091F836100025069808293BD2DFE801F099
:103FA0003A3A04043A3A202094F83410032911D004
:103FB000E265A4F86030206436B12046FFF7B7FF11
:103FC00021463046FFF75AFF204600F053FB84F8A5
:103FD00036501BE000902146304600F022F8EBE717
:103FE00094F83410032916D0E265A4F860302064F8
:103FF000204600F0E1FC36B12046FFF798FF21464D
:104000003046FFF73BFF042084F8360084F8355033
:1040100084F83450F8BD00902146304600F001F895
:10402000E6E770B50C6B049DC98F0AE0E66886422E
:1040300004D1C4E904022383E56170BD491E89B23D
:1040400020340029F2D170BD10B50024064802E0EA
:104050002034E4B2001D01680029F9D00846FCF7BD
:10406000D0F82044C0B210BDAC00002000200449AC
:10407000024600BF41F82020401C0228FAD37047B6
:10408000AC00002000F01F0241090120C2F11F0214
:104090009040034A52F82130034342F821307047E0
:1040A000AC00002000F01F0241090120C2F11F02F4
:1040B0009040034A52F82130834342F82130704740
:1040C000AC000020034A00211160034A11800180E6
:1040D00070470000FC000020000100200020074B7A
:1040E000014600BF00EB400203EB8202401C11813D
:1040F0001160C0B251604028F4D37047E0480020FE
:1041000010B5044690F83700FFF7BCFF074994F854
:10411000370009788842204603D1BDE8104000F0FE
:1041200023B8BDE8104000F003B80000F6000020FE
:1041300090F837100B4A01EB410102EB810100229C
:104140000B8943B15B1C0B810B68C0E903320A6821
:1041500010610860704701230B81C2600261086032
:1041600048607047E048002090F837100A4A01EB99
:10417000410102EB810100220B893BB15B1C0B81E9
:10418000C2604A680261D0604860704701230B81B9
:10419000C26002610860F7E7E048002070B505469C
:1041A00090F83700114900EB400001EB8001D5E9A0
:1041B0000302002442B10B895B1E0B81D06090B1D9
:1041C00002612C61EC6070BD28B10A89521E0A811F
:1041D00004610860F5E70C810C604C6095F83700CD
:1041E000FFF760FFEDE74A60EBE70000E0480020E2
:1041F000034A00211160034A1180018070470000CA
:1042000004010020080100200EB5804C804E20687B
:10421000450004E028466A460021FFF7BDFB3078E0
:104220000128F7D16846FEF7A5FF7A4822680168A1
:10423000914206D90A462168B2FBF1F15FEA010812
:1042400003D100680A21B0FBF1F8DFF8CCB1734F5D
:1042500042F210795FF00006FCF79EFB0190FCF73C
:1042600065FB6F490860FBF7C1FF0546FCF76CFB77
:104270006C486D4C016821600660FCF775FB2846B0
:10428000FBF7B8FF6948236802689A422BD968484F
:10429000824202D24846012115E06648824203D29A
:1042A0004FF47A700A210EE06348824202D2642001
:1042B000014608E06148824203D20A204FF47A7135
:1042C00001E001204946B2FBF1F15843B0FBF1F1A6
:1042D000A9EB01005A4980B2ABF800000A8882427B
:1042E00003D2088001E0ABF80090FFF70BF8002440
:1042F000FBF77CFF8246FCF727FB3D6816E000BF1A
:10430000FBF774FF8246FCF71FFB55F89C0FC5E9CD
:104310000060FCF729FB5046FBF76CFF686804441B
:10432000FBF764FF8246FCF70FFB2D6AFCF71CFBD2
:104330005046FBF75FFF002DE2D12CB33C4884428E
:1043400002D24D46012015E03A48844203D24FF490
:104350007A750A200EE03848844202D26425284645
:1043600008E03648844203D20A254FF47A7001E00F
:1043700001254846B4FBF0F08246FBF737FF029078
:10438000FCF7E2FA3C6822E000250120F4E700BFD8
:10439000D4F8A0106943B1FBFAF080B2484500D9C7
:1043A0004846A4F88C00B4F88E10814201D2A4F8DB
:1043B0008E0004F1AC026B46111D2046FFF7C8F9D0
:1043C000FBF714FF0290FCF7BFFAD4F8BC40FCF7EF
:1043D000CBFA0298FBF70EFF002CD9D119480178CF
:1043E000012903D106706846FEF7C4FEFCF7D4FA33
:1043F0000199401A14490A68824200D208606A464C
:1044000000214046FFF7C8FA26E70000F47F0008C5
:104410001C010020088000080C0100202801002059
:10442000D8000020100100201801002014010020F5
:10443000801A060000093D00005A62020084D71766
:104440000E0100200A0100202001002030B51D4A85
:1044500089B0002111601C4A11601C4A11601C4A7D
:1044600011701C4A11701C4A136843B11B4B1C4D40
:104470001C682D68AC4205D246F62C6108E046F671
:104480002B6105E0174C25783F2D04D346F62A61B1
:10449000018009B030BD032505910691CDE9075093
:1044A00011481B6812680068CDE90120CDE903318D
:1044B0002078009000230D4A0DA11248FEF72AFF34
:1044C000E7E700001001002018010020140100207F
:1044D0001C0100200A010020F87F0008008000086D
:1044E00004800008F07F0008FC7F000809420008F3
:1044F00075432F4F532D49494920537461742054FB
:1045000061736B00E04B002038B50446022531B1E1
:104510006B46022200F0E4F9BDF8000028B184F8EF
:1045200036502046FFF73AFE38BD032084F83600A7
:10453000F7E70000074B0022C0F8B820196829B13E
:10454000C0F8BC10C1F8B80018607047C0F8BC20B3
:10455000FAE7000028010020D0E92E2100234AB10B
:1045600081B1C2F8BC10C1F8B820C0F8BC30C0F8A6
:10457000B8307047054A116009B1C1F8B830C0F8C9
:10458000BC307047C2F8BC30F1E7000028010020C1
:10459000044A00211160044A1180044A116001801C
:1045A00070470000280100202C0100202401002079
:1045B00070B50025056085604560C5600561456191
:1045C0000446856128A0C4E907506562A562E562DA
:1045D0002563E5872564E565A4F86050002104F1B2
:1045E0006400FFF7C1FB6567A567C4F88050A4F8B5
:1045F00088500020C4F8845004EB8001401CCD6733
:1046000010F0FF00F8D06564C4F8A450C4F8A850B6
:10461000A56384F88A50C4F8B050C4F8AC50A5879C
:104620004FF00040C4E9120525656565A565A4F84D
:104630008C50A4F88E50C4F89050C4F89450343480
:10464000FCF7AAF9C4E91905C4F8805004F8015B25
:10465000402004F8015B04F8015B04F8810B04A01E
:1046600020C4C4E9005070BD3F5461736B0000006A
:104670002000000010B5044600F09EF994F83600C2
:10468000400704D42046BDE81040FFF739BD10BDF7
:1046900070B50D460446FBF7A9FD0646FCF754F934
:1046A0000020288094F83610082944D2DFE801F071
:1046B000040404040D232D37FCF756F93046FBF7AC
:1046C00099FD47F25310288011E094F88A10491E92
:1046D00011F0FF0184F88A1004D184F836002046D6
:1046E000FFF7C8FFFCF740F93046FBF783FDBDE854
:1046F0007040FEF775BC94F88A00401E10F0FF0071
:1047000084F88A00EED1012012E094F88A00401E5D
:1047100010F0FF0084F88A00E4D1022008E094F849
:104720008A00401E10F0FF0084F88A00DAD10320CE
:1047300084F83600D6E7FCF717F93046FBF75AFD48
:1047400046F62D60288070BD044808B50068FEF765
:1047500041FF69460020FEF795FE08BD4C01002090
:104760002DE9F8431E46144688460546FBF73EFDF4
:104770008146FCF7E9F80DB923480568002046F6A4
:10478000C5572C64308095F83600082830D2DFE811
:1047900000F004040F0F04040F0F6C6C601C1ED09B
:1047A000641C6C64FCF7E0F84846FBF723FD28E046
:1047B00095F834000728F0D100231A4629461846F8
:1047C0000094FFF7E2FB6C6CFCF7CEF84846FBF771
:1047D00011FD5FEA084014D4FEF702FC11E0FCF77B
:1047E000C3F84846FBF706FD37800020BDE8F88394
:1047F000FCF7BAF84846FBF7FDFC46F62D60308022
:1048000000242046F2E700004C01002070B50D4660
:104810000446FBF7EBFC0646FCF796F8234804B980
:104820000468006884420AD12148007838B1FCF756
:104830009BF83046FBF7DEFC46F6635034E0002080
:10484000288094F836100120082926D2DFE801F0EC
:10485000040D181A20202020042184F8361084F832
:104860008A002046FFF79AFC01E005210BE0FCF7E7
:104870007BF83046FBF7BEFCBDE87040FEF7B0BBEE
:10488000062100E0072184F8361084F88A00EEE75C
:1048900014F88A0F401C2070E9E7FCF765F83046F1
:1048A000FBF7A8FC46F62D60288070BD4C01002067
:1048B0000201002010B500200146074C074B06E01E
:1048C00004EBC002401C11609180D18080B21A8834
:1048D0009042F5D310BD0000084500201C80000860
:1048E000F0B5324C47F27E2625680024042A08D011
:1048F000B1B32E4E082A36680E440BD0C0E91361BE
:1049000015E04A1B521E12F5803F2AD8521CC0E9FE
:1049100013120CE0826C0A44571B7F1E8F4201D297
:10492000C26400E0C664C16C4A1B02658164204A0F
:10493000C16C1288B1FBF2F602FB16111D4A89B256
:1049400002EBC102918889B11168F1B1CE6C761B7E
:104950000E65076DB74212D94E6966B13146F5E76B
:10496000FFE7C4640465C4611E80F0BD44618461D6
:10497000012110600BE0C0E90541486105E08D6947
:1049800075B1C0E90515686188619188491C9180FD
:10499000D58889B28D4200D2D180C2611C80F0BD21
:1049A000C0E9051488611060EFE7000030010020C5
:1049B0001C8000080845002010B5C269002A15D0E7
:1049C000002101651368834204D14369136033B148
:1049D000996104E0D0E90534636103B19C614161F0
:1049E0008161C161C1649088401E908010BD00004B
:1049F00010B500200446064B064A04E003EBC00154
:104A0000401CCC8080B211888842F7D310BD0000D2
:104A1000084500201C8000082DE9F05FFBF7E6FB4D
:104A20008346FBF791FFFBF7B7FF3D4D07463D4936
:104A300028684FF00008401C286009884FF00309DF
:104A4000B0FBF1F201FB1200374980B24FF0040ACB
:104A500051F83040C4B394F83600666908284DD246
:104A6000DFE800F04C044C104C264C33E06C296815
:104A7000421A2265884243D184F836802046FFF7E7
:104A8000F9FD3BE0E16C28680A1A2265814237D1C2
:104A9000C4F85C80A4F86080FBF77EFF20642046A9
:104AA000FFF745FA2046FFF7E5FD84F8368021E060
:104AB000E06C2968421A2265884221D184F836A028
:104AC0002046FFF779FF19E01AE0E16C28680A1A1E
:104AD0002265814214D1C4F85C80A4F86080FBF7A1
:104AE0005BFF20642046FFF722FA2046FFF764FFB1
:104AF00084F836A084F8359084F834803446A9E7E9
:104B0000FBF74AFF0949C01B0A68824200D20860CD
:104B1000FBF72AFF5846BDE8F05FFBF76BBB0000D0
:104B2000300100201C8000080845002034010020CE
:104B30001CB5084C00216B4601AA0846FEF752FD41
:104B4000BDF800000028F5D120780128F2D1FFF748
:104B500063FFEFE7DC00002030B504461A4889B057
:104B60000025056019480560FFF7A4FE1848016894
:104B700041B11849184B0A681B689A4205D247F29E
:104B8000132008E047F2122005E0144A13783F2B67
:104B900004D347F21120208009B030BD0B230595C6
:104BA0000695CDE907340E4B096800681B68CDE90E
:104BB0000103CDE90315107800900023094A0AA1EA
:104BC0000E48FEF7A7FBE7E7300100203401002084
:104BD0001080000818800008048000080C8000087D
:104BE00014800008314B000875432F4F532D49495D
:104BF00049205469636B205461736B00A44C0020FE
:104C000030B52A4A89B00021294B1160294C2A4A23
:104C10001D681DB12468B4FBF5F303E023680A2482
:104C2000B3FBF4F313601A46244B274D274C1A604C
:104C3000234A1160234A1160002206E005EBC203FB
:104C4000521C9980D98092B2196023889A42F5D378
:104C50001F4B1A6842B11F4A1F4D14682D68AC42A1
:104C600005D247F2483108E047F2473105E01B4CD6
:104C700025783F2D04D347F24631018009B030BD7D
:104C80000B2505910691CDE907501068144A1B6861
:104C90001268CDE90301CDE90132207800900023AC
:104CA000104A11A11648FEF735FBE7E7380100204E
:104CB00020800008088000084401002048010020EE
:104CC000400100203C01002088470020308000087F
:104CD000248000082C800008048000081E80000842
:104CE00028800008C54D000875432F4F532D4949B2
:104CF000492054696D6572205461736B0000000097
:104D0000684D002070B5022280F82A20204A01292F
:104D100014681ED0016AE1B11E4A214481611288E3
:104D2000B1FBF2F302FB13121B4B92B203EBC20274
:104D3000002315687DB1091BC1611168D1B18D696E
:104D40002D1BCD61C669AE420ED90D6945B129460C
:104D5000F5E7416AE0E703614361106001200BE081
:104D6000C0E90431086105E04C6964B1C0E904148C
:104D7000206148619088401C9080D18880B2814237
:104D800000D2D08070BDC0E9041348611060F1E723
:104D900040010020308000088847002010B5002026
:104DA0000446064B064A04E003EBC001401CCC80DD
:104DB00080B211888842F7D310BD000088470020D8
:104DC000308000081CB5DFF89090DFF890A0244DEB
:104DD000DFF890B000216B4601AA0846FEF702FCFE
:104DE0006846FEF737F9FBF7D7FD064628684FF00F
:104DF0000308401C2860B9F80010B0FBF1F201FB79
:104E0000120080B25AF83040C4B1A06929682769FD
:104E1000884213D1204600F027F8208D022808D0C0
:104E200084F82A80A26812B12046E16890473C4687
:104E3000EAE701212046FFF765FFF3E7FBF7ACFD4A
:104E4000841B6846FEF732F9DBF80010A142C1D29C
:104E5000CBF80040BEE70000308000088847002003
:104E6000400100203C01002010B5104A81691288E1
:104E7000B1FBF2F302FB13110D4A89B202EBC1023E
:104E8000002314680169844203D1116029B14B6188
:104E900003E04469216101B14C61012180F82A10CD
:104EA000036143619088401E908010BD30800008EF
:104EB0008847002030B53F483D4C85B0016841F03F
:104EC000010101603B480838016841F4800101603C
:104ED000016841F002010160016841F004010160D4
:104EE000016841F008010160016841F010010160B2
:104EF000016841F020010160016841F0400101605A
:104F000002200125CDE9010503900C2004906020CA
:104F1000009069462848FCF791FC694627480095AF
:104F2000FCF78CFC4CF20370009069462448FCF7B7
:104F300085FC4FF68370009069462248FCF77EFCA2
:104F40004FF63F00009069461F48FCF777FC48F297
:104F50003310009069461D48FCF770FCA4F1500026
:104F600000218022C0E901129200C2605200026159
:104F7000920042619200C0E90621D200C0E90821F6
:104F80000322C0E90A21016311490160206384639F
:104F9000FBF728FFA4F15000FCF70CFC00220521D0
:104FA0003820FCF741FE3820FCF732FE05B030BD5A
:104FB00068340020383802400004024000080240F3
:104FC000000C024000100240001402400018024091
:104FD00010640240174810B5016892B041F080514A
:104FE00001601548016841F44041016001200090D2
:104FF000019002248005CDE90640192008904FF465
:10500000B470CDE9090407200B906846FDF704F958
:10501000FCF73CFE0F20CDE90C0400200E904FF46D
:10502000A0500F90E002109005210CA8FCF792FF11
:1050300012B010BD403802400070004010480168B6
:1050400041F4700101600F48016841F00101016005
:105050000C4A00210832116002680B4B1A400260B2
:10506000031D0A4A1A60026822F480220260054881
:105070000C30016002495806803908607047000012
:1050800088ED00E000380240FFFFF6FE10300024FB
:105090000EB5104C01AE4FF4C875002202AB11469C
:1050A0000D480096FDF71CFE2046FBF765FB0BA1A3
:1050B0000520FBF733FA0EA10620FBF72FFA01AA11
:1050C00000212846FEF768FC01AA00210248FDF7EE
:1050D000EBFEE2E7FF0000FF540100205461736B18
:1050E00020412069732072756E696E672000000090
:1050F0005461736B20422069732077616974696E13
:10510000670000000EB5104C01AE4FF4C8750022C8
:1051100002AB11460D480096FDF7E2FD2046FBF775
:105120002BFB0BA10520FBF7F9F90EA10620FBF7DD
:10513000F5F901AA00212846FEF72EFC01AA00215C
:105140000248FDF7B1FEE2E70000FFFF5401002036
:105150005461736B20412069732077616974696EB3
:10516000670000005461736B2042206973207275E0
:105170006E696E67200000008AB009AA21A1254847
:10518000FDF774FDFBF72CF92348244900680968F2
:10519000B0FBF1F0FEF71EFD09A8FEF759F8FBF78A
:1051A000B5FB00240326CDE9064609AD4FF064089F
:1051B0001B490895059404208DE803014FF47A7784
:1051C000CDE903742346174A17A11948FEF7A2F840
:1051D000CDE9064617490895059405208DE8030199
:1051E000CDE903740023144A14A11648FEF792F87F
:1051F0000022642311461046CDE90045FEF718FC55
:10520000F6E7000053657269616C204D757465782E
:1052100000000000540100207400002008800008F5
:10522000A8120020915000085461736B5F41000088
:10523000E41100200C230020055100085461736B19
:105240005F420000482200200A4810B5084901606A
:105250004FF4E131416000218160C16001618161F1
:105260000C214161FDF7C2F9002800D0FEE710BD16
:1052700000100140AC3200202DE9F04101680446E5
:10528000086920F44052E068104308612268D06841
:1052900049F20C6188432369A168E5691943636990
:1052A0002B4319430143D1602168486920F44072BF
:1052B000A06910434861E26964263225B2F5004FC7
:1052C00049494A4822681DD0824201D08A426AD1A7
:1052D000FCF74AFF00EBC00101EB00106168B0462B
:1052E0008900B0FBF1F1B1FBF8F6FCF73DFF00EBF4
:1052F000C00101EB001061688900B0FBF1F7FCF719
:1053000033FF69E0824201D08A4219D1FCF72CFFB9
:1053100000EBC00101EB00106168B0464900B0FB32
:10532000F1F1B1FBF8F6FCF71FFF00EBC00101EB58
:10533000001061684900B0FBF1F7FCF715FF18E0B9
:10534000FCF7FCFE00EBC00101EB00106168B04609
:105350004900B0FBF1F1B1FBF8F6FCF7EFFE00EB12
:10536000C00101EB001061684900B0FBF1F7FCF7E8
:10537000E5FE00EBC00101EB001061685FEA41014E
:10538000B0FBF1F1B1FBF8F06FF01801484307EB07
:10539000800005EB0011B1FBF8F0216866F31F10E7
:1053A0008860BDE8F081FCF7C9FE00EBC00101EBAD
:1053B00000106168B0468900B0FBF1F1B1FBF8F66E
:1053C000FCF7BCFE00EBC00101EB00106168890036
:1053D000B0FBF1F7FCF7B2FE00EBC00101EB0010EF
:1053E00061688900CCE70000001401400010014012
:1053F000FEE702E008C8121F08C1002AFAD1704770
:105400007047002001E001C1121F002AFBD1704744
:10541000044A00210020401C9042FCD3491C0A2968
:10542000F8D37047905F010000B58BB0FAF7DAFE51
:1054300009A8FDF727FB002009A903220590069083
:10544000CDE90721642202924FF47A71CDE903106D
:10545000084B0220CDE9000306480023064A07A1B5
:10546000C438FDF757FF09A8FDF758FE0BB0002020
:1054700000BD000044020020795100085461736BA4
:105480005374617274757000000200040700070015
:10549000002000200020002001000020002001004A
:1054A0000200040008000020060028002800060072
:1054B00007000800090028000000000000000000AC
:1054C00000000000000000000000000000000000DC
:1054D00000000000000000000000000000000000CC
:1054E00000000000000000000000000000000000BC
:1054F00000000000000000000000000000000000AC
:10550000000000000000038000038000038000030F
:10551000800003800003800003800003800003807C
:1055200000010000010000000000000000038000F6
:1055300003800000000000000000000000000000E8
:10554000000000000000000000000000000000005B
:10555000000E70000E70000E700004200004200089
:1055600004200004200000000000000000000000F3
:10557000000000000000000000000000000000002B
:10558000000000000000000000000000000000001B
:1055900000000000000006600006600006600006D3
:1055A00060000660003FF8003FF8000660000CC095
:1055B000003FF8003FF8000CC0000CC0000CC00019
:1055C0000CC0000CC0000000000000000000000043
:1055D00000000000000000000000000180000180C9
:1055E0000007B0000FF0001870001870001C0000D9
:1055F0000F800007E00000F0001830001C30001C95
:1056000070001FE0001BC0000180000180000180CD
:105610000001800000000000000000000000000009
:105620000000000000000780000FC0001CE0001810
:1056300060001860001CE0000FF80007E0001FF099
:105640000007380006180006180007380003F000AD
:1056500001E0000000000000000000000000000069
:10566000000000000000000000000000000000003A
:105670000000000003F00007F0000C60000C0000C8
:105680000C00000600000700000F9C001DFC001825
:10569000F0001870000FFC0007DC000000000000A4
:1056A00000000000000000000000000000000000FA
:1056B00000000000000000000003800003800003E1
:1056C0008000010000010000010000010000000056
:1056D00000000000000000000000000000000000CA
:1056E00000000000000000000000000000000000BA
:1056F0000000000000000000000000000000001892
:105700000000380000700000F00000E00000E00041
:1057100001C00001C00001C00001C00001C00001C3
:10572000C00000E00000E0000070000070000038E1
:105730000000180000000000000000000000000051
:105740000000000000001800001C00000E00000E09
:1057500000000700000700000380000380000380B2
:1057600000038000038000038000070000070000A2
:105770000F00000E00001C000018000000000000D8
:105780000000000000000000000000000000018098
:10579000000180000180001DB8001FF80007E00034
:1057A00003C00003C00006600006600000000000A7
:1057B00000000000000000000000000000000000E9
:1057C00000000000000000000000000000000000D9
:1057D0000000000000000000000000000180000147
:1057E00080000180000180000180003FFC003FFC40
:1057F0000001800001800001800001800001800024
:105800000000000000000000000000000000000098
:105810000000000000000000000000000000000088
:105820000000000000000000000000000000000078
:105830000000000000000000000000000000000068
:10584000000000E00000C00001C0000180000180F5
:105850000003000003000000000000000000000042
:105860000000000000000000000000000000000038
:1058700000000000000000000000001FF8001FF8FA
:105880000000000000000000000000000000000018
:105890000000000000000000000000000000000008
:1058A00000000000000000000000000000000000F8
:1058B00000000000000000000000000000000000E8
:1058C00000000000000000000000000000000000D8
:1058D000000003C00003C00003C00000000000007F
:1058E00000000000000000000000000000000000B8
:1058F00000180000180000380000300000700000A0
:10590000600000600000C00000C000018000018055
:10591000000300000300000600000600000E000067
:105920000C00001C0000180000180000000000001F
:10593000000000000000000000000000000003C0A4
:105940000007E0000C30000C300018180018180098
:105950001818001818001818001818001818000C4B
:1059600030000C300007E00003C000000000000021
:105970000000000000000000000000000000000027
:105980000000000000000080000780001F80001D54
:105990008000018000018000018000018000018002
:1059A000000180000180000180000180001FF800DC
:1059B0001FF80000000000000000000000000000D0
:1059C000000000000000000000000000000007C010
:1059D000001FF000383000301800301800001800A8
:1059E00000300000600001C0000380000600000CD1
:1059F00000001800003FF8003FF800000000000021
:105A00000000000000000000000000000000000096
:105A100000000000000003C0000FE0000C70000058
:105A2000300000300000600003C00003E0000070A0
:105A3000000018000018000018001838001FF000BF
:105A40000FC0000000000000000000000000000087
:105A5000000000000000000000000000000000E066
:105A60000001E00001E00003600006600006600045
:105A70000C60000C60001860003060003FF8003FD0
:105A8000F80000600003F80003F8000000000000C8
:105A90000000000000000000000000000000000006
:105AA0000000000000001FF0001FF00018000018A8
:105AB00000001800001BC0001FF0001C3000001880
:105AC000000018000018000018003030003FF000FF
:105AD0000FC00000000000000000000000000000F7
